{
  "contractName": "Blockopoly",
  "abi": [
    {
      "inputs": [],
      "payable": false,
      "stateMutability": "nonpayable",
      "type": "constructor"
    },
    {
      "anonymous": false,
      "inputs": [],
      "name": "GameStarted",
      "type": "event"
    },
    {
      "anonymous": false,
      "inputs": [
        {
          "indexed": false,
          "internalType": "address",
          "name": "player",
          "type": "address"
        },
        {
          "indexed": false,
          "internalType": "string",
          "name": "name",
          "type": "string"
        }
      ],
      "name": "PlayerJoined",
      "type": "event"
    },
    {
      "constant": true,
      "inputs": [
        {
          "internalType": "address",
          "name": "",
          "type": "address"
        }
      ],
      "name": "addrPlayerMapping",
      "outputs": [
        {
          "internalType": "address",
          "name": "addr",
          "type": "address"
        },
        {
          "internalType": "string",
          "name": "name",
          "type": "string"
        }
      ],
      "payable": false,
      "stateMutability": "view",
      "type": "function"
    },
    {
      "constant": true,
      "inputs": [],
      "name": "assetManager",
      "outputs": [
        {
          "internalType": "contract AssetManager",
          "name": "",
          "type": "address"
        }
      ],
      "payable": false,
      "stateMutability": "view",
      "type": "function"
    },
    {
      "constant": true,
      "inputs": [],
      "name": "bank",
      "outputs": [
        {
          "internalType": "contract Bank",
          "name": "",
          "type": "address"
        }
      ],
      "payable": false,
      "stateMutability": "view",
      "type": "function"
    },
    {
      "constant": true,
      "inputs": [],
      "name": "banker",
      "outputs": [
        {
          "internalType": "address",
          "name": "",
          "type": "address"
        }
      ],
      "payable": false,
      "stateMutability": "view",
      "type": "function"
    },
    {
      "constant": true,
      "inputs": [
        {
          "internalType": "string",
          "name": "",
          "type": "string"
        }
      ],
      "name": "names",
      "outputs": [
        {
          "internalType": "bool",
          "name": "",
          "type": "bool"
        }
      ],
      "payable": false,
      "stateMutability": "view",
      "type": "function"
    },
    {
      "constant": true,
      "inputs": [
        {
          "internalType": "uint256",
          "name": "",
          "type": "uint256"
        }
      ],
      "name": "players",
      "outputs": [
        {
          "internalType": "address",
          "name": "addr",
          "type": "address"
        },
        {
          "internalType": "string",
          "name": "name",
          "type": "string"
        }
      ],
      "payable": false,
      "stateMutability": "view",
      "type": "function"
    },
    {
      "constant": true,
      "inputs": [],
      "name": "started",
      "outputs": [
        {
          "internalType": "bool",
          "name": "",
          "type": "bool"
        }
      ],
      "payable": false,
      "stateMutability": "view",
      "type": "function"
    },
    {
      "constant": false,
      "inputs": [],
      "name": "startGame",
      "outputs": [],
      "payable": false,
      "stateMutability": "nonpayable",
      "type": "function"
    },
    {
      "constant": false,
      "inputs": [
        {
          "internalType": "string",
          "name": "_name",
          "type": "string"
        }
      ],
      "name": "joinGame",
      "outputs": [],
      "payable": false,
      "stateMutability": "nonpayable",
      "type": "function"
    },
    {
      "constant": false,
      "inputs": [
        {
          "internalType": "string",
          "name": "_name",
          "type": "string"
        }
      ],
      "name": "buyProperty",
      "outputs": [],
      "payable": false,
      "stateMutability": "nonpayable",
      "type": "function"
    },
    {
      "constant": true,
      "inputs": [],
      "name": "getWinner",
      "outputs": [
        {
          "internalType": "string",
          "name": "winner",
          "type": "string"
        }
      ],
      "payable": false,
      "stateMutability": "view",
      "type": "function"
    }
  ],
  "bytecode": "0x60806040523480156200001157600080fd5b50336000806101000a81548173ffffffffffffffffffffffffffffffffffffffff021916908373ffffffffffffffffffffffffffffffffffffffff1602179055506040516200006090620010af565b604051809103906000f0801580156200007d573d6000803e3d6000fd5b50600160006101000a81548173ffffffffffffffffffffffffffffffffffffffff021916908373ffffffffffffffffffffffffffffffffffffffff160217905550600160009054906101000a900473ffffffffffffffffffffffffffffffffffffffff1673ffffffffffffffffffffffffffffffffffffffff166340c10f196000809054906101000a900473ffffffffffffffffffffffffffffffffffffffff16620186a06040518363ffffffff1660e01b8152600401808373ffffffffffffffffffffffffffffffffffffffff1673ffffffffffffffffffffffffffffffffffffffff16815260200182815260200192505050600060405180830381600087803b1580156200018c57600080fd5b505af1158015620001a1573d6000803e3d6000fd5b50505050604051620001b390620010bd565b604051809103906000f080158015620001d0573d6000803e3d6000fd5b50600260006101000a81548173ffffffffffffffffffffffffffffffffffffffff021916908373ffffffffffffffffffffffffffffffffffffffff160217905550620002216200022760201b60201c565b620010cb565b600260009054906101000a900473ffffffffffffffffffffffffffffffffffffffff1673ffffffffffffffffffffffffffffffffffffffff16636ef4d28c60646000809054906101000a900473ffffffffffffffffffffffffffffffffffffffff166040518363ffffffff1660e01b815260040180806020018481526020018373ffffffffffffffffffffffffffffffffffffffff1673ffffffffffffffffffffffffffffffffffffffff1681526020018281038252600f8152602001807f5265646d6f6e642052656163746f7200000000000000000000000000000000008152506020019350505050600060405180830381600087803b1580156200032c57600080fd5b505af115801562000341573d6000803e3d6000fd5b50505050600260009054906101000a900473ffffffffffffffffffffffffffffffffffffffff1673ffffffffffffffffffffffffffffffffffffffff16636ef4d28c60646000809054906101000a900473ffffffffffffffffffffffffffffffffffffffff166040518363ffffffff1660e01b815260040180806020018481526020018373ffffffffffffffffffffffffffffffffffffffff1673ffffffffffffffffffffffffffffffffffffffff1681526020018281038252600f8152602001807f53656174746c652052656163746f7200000000000000000000000000000000008152506020019350505050600060405180830381600087803b1580156200044a57600080fd5b505af11580156200045f573d6000803e3d6000fd5b50505050600260009054906101000a900473ffffffffffffffffffffffffffffffffffffffff1673ffffffffffffffffffffffffffffffffffffffff16636ef4d28c60646000809054906101000a900473ffffffffffffffffffffffffffffffffffffffff166040518363ffffffff1660e01b815260040180806020018481526020018373ffffffffffffffffffffffffffffffffffffffff1673ffffffffffffffffffffffffffffffffffffffff168152602001828103825260158152602001807f53616e204672616e636973636f2052656163746f7200000000000000000000008152506020019350505050600060405180830381600087803b1580156200056857600080fd5b505af11580156200057d573d6000803e3d6000fd5b50505050600260009054906101000a900473ffffffffffffffffffffffffffffffffffffffff1673ffffffffffffffffffffffffffffffffffffffff16636ef4d28c60646000809054906101000a900473ffffffffffffffffffffffffffffffffffffffff166040518363ffffffff1660e01b815260040180806020018481526020018373ffffffffffffffffffffffffffffffffffffffff1673ffffffffffffffffffffffffffffffffffffffff168152602001828103825260108152602001807f4e657720596f726b2052656163746f72000000000000000000000000000000008152506020019350505050600060405180830381600087803b1580156200068657600080fd5b505af11580156200069b573d6000803e3d6000fd5b50505050600260009054906101000a900473ffffffffffffffffffffffffffffffffffffffff1673ffffffffffffffffffffffffffffffffffffffff16636ef4d28c60646000809054906101000a900473ffffffffffffffffffffffffffffffffffffffff166040518363ffffffff1660e01b815260040180806020018481526020018373ffffffffffffffffffffffffffffffffffffffff1673ffffffffffffffffffffffffffffffffffffffff1681526020018281038252600f8152602001807f546f726f6e746f2052656163746f7200000000000000000000000000000000008152506020019350505050600060405180830381600087803b158015620007a457600080fd5b505af1158015620007b9573d6000803e3d6000fd5b50505050600260009054906101000a900473ffffffffffffffffffffffffffffffffffffffff1673ffffffffffffffffffffffffffffffffffffffff16636ef4d28c60646000809054906101000a900473ffffffffffffffffffffffffffffffffffffffff166040518363ffffffff1660e01b815260040180806020018481526020018373ffffffffffffffffffffffffffffffffffffffff1673ffffffffffffffffffffffffffffffffffffffff1681526020018281038252600e8152602001807f4c6f6e646f6e2052656163746f720000000000000000000000000000000000008152506020019350505050600060405180830381600087803b158015620008c257600080fd5b505af1158015620008d7573d6000803e3d6000fd5b50505050600260009054906101000a900473ffffffffffffffffffffffffffffffffffffffff1673ffffffffffffffffffffffffffffffffffffffff16636ef4d28c60646000809054906101000a900473ffffffffffffffffffffffffffffffffffffffff166040518363ffffffff1660e01b815260040180806020018481526020018373ffffffffffffffffffffffffffffffffffffffff1673ffffffffffffffffffffffffffffffffffffffff168152602001828103825260118152602001807f53616f205061756c6f2052656163746f720000000000000000000000000000008152506020019350505050600060405180830381600087803b158015620009e057600080fd5b505af1158015620009f5573d6000803e3d6000fd5b50505050600260009054906101000a900473ffffffffffffffffffffffffffffffffffffffff1673ffffffffffffffffffffffffffffffffffffffff16636ef4d28c60646000809054906101000a900473ffffffffffffffffffffffffffffffffffffffff166040518363ffffffff1660e01b815260040180806020018481526020018373ffffffffffffffffffffffffffffffffffffffff1673ffffffffffffffffffffffffffffffffffffffff168152602001828103825260108152602001807f54656c20417669762052656163746f72000000000000000000000000000000008152506020019350505050600060405180830381600087803b15801562000afe57600080fd5b505af115801562000b13573d6000803e3d6000fd5b50505050600260009054906101000a900473ffffffffffffffffffffffffffffffffffffffff1673ffffffffffffffffffffffffffffffffffffffff16636ef4d28c60646000809054906101000a900473ffffffffffffffffffffffffffffffffffffffff166040518363ffffffff1660e01b815260040180806020018481526020018373ffffffffffffffffffffffffffffffffffffffff1673ffffffffffffffffffffffffffffffffffffffff168152602001828103825260118152602001807f53746f636b686f6c6d2052656163746f720000000000000000000000000000008152506020019350505050600060405180830381600087803b15801562000c1c57600080fd5b505af115801562000c31573d6000803e3d6000fd5b50505050600260009054906101000a900473ffffffffffffffffffffffffffffffffffffffff1673ffffffffffffffffffffffffffffffffffffffff16636ef4d28c60646000809054906101000a900473ffffffffffffffffffffffffffffffffffffffff166040518363ffffffff1660e01b815260040180806020018481526020018373ffffffffffffffffffffffffffffffffffffffff1673ffffffffffffffffffffffffffffffffffffffff168152602001828103825260118152602001807f4162752044686162692052656163746f720000000000000000000000000000008152506020019350505050600060405180830381600087803b15801562000d3a57600080fd5b505af115801562000d4f573d6000803e3d6000fd5b50505050600260009054906101000a900473ffffffffffffffffffffffffffffffffffffffff1673ffffffffffffffffffffffffffffffffffffffff16636ef4d28c60646000809054906101000a900473ffffffffffffffffffffffffffffffffffffffff166040518363ffffffff1660e01b815260040180806020018481526020018373ffffffffffffffffffffffffffffffffffffffff1673ffffffffffffffffffffffffffffffffffffffff1681526020018281038252600e8152602001807f5379646e65792052656163746f720000000000000000000000000000000000008152506020019350505050600060405180830381600087803b15801562000e5857600080fd5b505af115801562000e6d573d6000803e3d6000fd5b50505050600260009054906101000a900473ffffffffffffffffffffffffffffffffffffffff1673ffffffffffffffffffffffffffffffffffffffff16636ef4d28c60646000809054906101000a900473ffffffffffffffffffffffffffffffffffffffff166040518363ffffffff1660e01b815260040180806020018481526020018373ffffffffffffffffffffffffffffffffffffffff1673ffffffffffffffffffffffffffffffffffffffff168152602001828103825260108152602001807f5368616e676861692052656163746f72000000000000000000000000000000008152506020019350505050600060405180830381600087803b15801562000f7657600080fd5b505af115801562000f8b573d6000803e3d6000fd5b50505050600260009054906101000a900473ffffffffffffffffffffffffffffffffffffffff1673ffffffffffffffffffffffffffffffffffffffff16636ef4d28c60646000809054906101000a900473ffffffffffffffffffffffffffffffffffffffff166040518363ffffffff1660e01b815260040180806020018481526020018373ffffffffffffffffffffffffffffffffffffffff1673ffffffffffffffffffffffffffffffffffffffff168152602001828103825260118152602001807f42616e67616c6f72652052656163746f720000000000000000000000000000008152506020019350505050600060405180830381600087803b1580156200109457600080fd5b505af1158015620010a9573d6000803e3d6000fd5b50505050565b61081f8062002c7e83390190565b6110bd806200349d83390190565b611ba380620010db6000396000f3fe608060405234801561001057600080fd5b50600436106100a95760003560e01c80638e7ea5b2116100715780638e7ea5b2146102f257806394217ad114610375578063c33ce741146103bf578063d65ab5f2146104af578063ecbef164146104b9578063f71d96cb14610574576100a9565b80630ab9db5b146100ae5780631f2698ab146100f85780633d536a2e1461011a57806376cdb03b146101d5578063822fbf581461021f575b600080fd5b6100b661064e565b604051808273ffffffffffffffffffffffffffffffffffffffff1673ffffffffffffffffffffffffffffffffffffffff16815260200191505060405180910390f35b610100610673565b604051808215151515815260200191505060405180910390f35b6101d36004803603602081101561013057600080fd5b810190808035906020019064010000000081111561014d57600080fd5b82018360208201111561015f57600080fd5b8035906020019184600183028401116401000000008311171561018157600080fd5b91908080601f016020809104026020016040519081016040528093929190818152602001838380828437600081840152601f19601f820116905080830192505050505050509192919290505050610686565b005b6101dd610ab2565b604051808273ffffffffffffffffffffffffffffffffffffffff1673ffffffffffffffffffffffffffffffffffffffff16815260200191505060405180910390f35b6102d86004803603602081101561023557600080fd5b810190808035906020019064010000000081111561025257600080fd5b82018360208201111561026457600080fd5b8035906020019184600183028401116401000000008311171561028657600080fd5b91908080601f016020809104026020016040519081016040528093929190818152602001838380828437600081840152601f19601f820116905080830192505050505050509192919290505050610ad8565b604051808215151515815260200191505060405180910390f35b6102fa610b0e565b6040518080602001828103825283818151815260200191508051906020019080838360005b8381101561033a57808201518184015260208101905061031f565b50505050905090810190601f1680156103675780820380516001836020036101000a031916815260200191505b509250505060405180910390f35b61037d610e1e565b604051808273ffffffffffffffffffffffffffffffffffffffff1673ffffffffffffffffffffffffffffffffffffffff16815260200191505060405180910390f35b610401600480360360208110156103d557600080fd5b81019080803573ffffffffffffffffffffffffffffffffffffffff169060200190929190505050610e44565b604051808373ffffffffffffffffffffffffffffffffffffffff1673ffffffffffffffffffffffffffffffffffffffff16815260200180602001828103825283818151815260200191508051906020019080838360005b83811015610473578082015181840152602081019050610458565b50505050905090810190601f1680156104a05780820380516001836020036101000a031916815260200191505b50935050505060405180910390f35b6104b7610f20565b005b610572600480360360208110156104cf57600080fd5b81019080803590602001906401000000008111156104ec57600080fd5b8201836020820111156104fe57600080fd5b8035906020019184600183028401116401000000008311171561052057600080fd5b91908080601f016020809104026020016040519081016040528093929190818152602001838380828437600081840152601f19601f82011690508083019250505050505050919291929050505061132a565b005b6105a06004803603602081101561058a57600080fd5b8101908080359060200190929190505050611969565b604051808373ffffffffffffffffffffffffffffffffffffffff1673ffffffffffffffffffffffffffffffffffffffff16815260200180602001828103825283818151815260200191508051906020019080838360005b838110156106125780820151818401526020810190506105f7565b50505050905090810190601f16801561063f5780820380516001836020036101000a031916815260200191505b50935050505060405180910390f35b6000809054906101000a900473ffffffffffffffffffffffffffffffffffffffff1681565b600660009054906101000a900460ff1681565b600660038054905010610701576040517f08c379a000000000000000000000000000000000000000000000000000000000815260040180806020018281038252600c8152602001807f47616d652069732066756c6c000000000000000000000000000000000000000081525060200191505060405180910390fd5b6004816040518082805190602001908083835b602083106107375780518252602082019150602081019050602083039250610714565b6001836020036101000a038019825116818451168082178552505050505050905001915050908152602001604051809103902060009054906101000a900460ff16156107eb576040517f08c379a00000000000000000000000000000000000000000000000000000000081526004018080602001828103825260158152602001807f4e616d6520697320616c72656164792074616b656e000000000000000000000081525060200191505060405180910390fd5b6107f3611a52565b60405180604001604052803373ffffffffffffffffffffffffffffffffffffffff1681526020018381525090506003819080600181540180825580915050906001820390600052602060002090600202016000909192909190915060008201518160000160006101000a81548173ffffffffffffffffffffffffffffffffffffffff021916908373ffffffffffffffffffffffffffffffffffffffff16021790555060208201518160010190805190602001906108b1929190611a82565b5050505060016004836040518082805190602001908083835b602083106108ed57805182526020820191506020810190506020830392506108ca565b6001836020036101000a038019825116818451168082178552505050505050905001915050908152602001604051809103902060006101000a81548160ff02191690831515021790555080600560003373ffffffffffffffffffffffffffffffffffffffff1673ffffffffffffffffffffffffffffffffffffffff16815260200190815260200160002060008201518160000160006101000a81548173ffffffffffffffffffffffffffffffffffffffff021916908373ffffffffffffffffffffffffffffffffffffffff16021790555060208201518160010190805190602001906109da929190611a82565b509050507fb46af3c568709a25575d501b270c4768aef802b1e39fb922a8f21cb385e2ae9b3383604051808373ffffffffffffffffffffffffffffffffffffffff1673ffffffffffffffffffffffffffffffffffffffff16815260200180602001828103825283818151815260200191508051906020019080838360005b83811015610a73578082015181840152602081019050610a58565b50505050905090810190601f168015610aa05780820380516001836020036101000a031916815260200191505b50935050505060405180910390a15050565b600160009054906101000a900473ffffffffffffffffffffffffffffffffffffffff1681565b6004818051602081018201805184825260208301602085012081835280955050505050506000915054906101000a900460ff1681565b6060600660009054906101000a900460ff16610b92576040517f08c379a00000000000000000000000000000000000000000000000000000000081526004018080602001828103825260108152602001807f47616d65206e6f7420737461727465640000000000000000000000000000000081525060200191505060405180910390fd5b6007544211610c09576040517f08c379a000000000000000000000000000000000000000000000000000000000815260040180806020018281038252600e8152602001807f47616d65206e6f7420656e64656400000000000000000000000000000000000081525060200191505060405180910390fd5b60008060009050600080905060008090505b600380549050811015610d5e57600160009054906101000a900473ffffffffffffffffffffffffffffffffffffffff1673ffffffffffffffffffffffffffffffffffffffff1663f8b2cb4f60038381548110610c7357fe5b906000526020600020906002020160000160009054906101000a900473ffffffffffffffffffffffffffffffffffffffff166040518263ffffffff1660e01b8152600401808273ffffffffffffffffffffffffffffffffffffffff1673ffffffffffffffffffffffffffffffffffffffff16815260200191505060206040518083038186803b158015610d0557600080fd5b505afa158015610d19573d6000803e3d6000fd5b505050506040513d6020811015610d2f57600080fd5b8101908080519060200190929190505050915082821115610d51578093508192505b8080600101915050610c1b565b5060038381548110610d6c57fe5b90600052602060002090600202016001018054600181600116156101000203166002900480601f016020809104026020016040519081016040528092919081815260200182805460018160011615610100020316600290048015610e115780601f10610de657610100808354040283529160200191610e11565b820191906000526020600020905b815481529060010190602001808311610df457829003601f168201915b5050505050935050505090565b600260009054906101000a900473ffffffffffffffffffffffffffffffffffffffff1681565b60056020528060005260406000206000915090508060000160009054906101000a900473ffffffffffffffffffffffffffffffffffffffff1690806001018054600181600116156101000203166002900480601f016020809104026020016040519081016040528092919081815260200182805460018160011615610100020316600290048015610f165780601f10610eeb57610100808354040283529160200191610f16565b820191906000526020600020905b815481529060010190602001808311610ef957829003601f168201915b5050505050905082565b6000809054906101000a900473ffffffffffffffffffffffffffffffffffffffff1673ffffffffffffffffffffffffffffffffffffffff163373ffffffffffffffffffffffffffffffffffffffff1614610fc5576040517f08c379a0000000000000000000000000000000000000000000000000000000008152600401808060200182810382526022815260200180611b4d6022913960400191505060405180910390fd5b600660009054906101000a900460ff1615611048576040517f08c379a00000000000000000000000000000000000000000000000000000000081526004018080602001828103825260148152602001807f47616d6520616c7265616479207374617274656400000000000000000000000081525060200191505060405180910390fd5b6000600380549050905060028110156110c9576040517f08c379a00000000000000000000000000000000000000000000000000000000081526004018080602001828103825260198152602001807f4e656564206174206c656173742074776f20706c61796572730000000000000081525060200191505060405180910390fd5b60008090505b818110156112d4576110df611a52565b600382815481106110ec57fe5b90600052602060002090600202016040518060400160405290816000820160009054906101000a900473ffffffffffffffffffffffffffffffffffffffff1673ffffffffffffffffffffffffffffffffffffffff1673ffffffffffffffffffffffffffffffffffffffff168152602001600182018054600181600116156101000203166002900480601f0160208091040260200160405190810160405280929190818152602001828054600181600116156101000203166002900480156111f45780601f106111c9576101008083540402835291602001916111f4565b820191906000526020600020905b8154815290600101906020018083116111d757829003601f168201915b5050505050815250509050600160009054906101000a900473ffffffffffffffffffffffffffffffffffffffff1673ffffffffffffffffffffffffffffffffffffffff166340c10f1982600001516103e86040518363ffffffff1660e01b8152600401808373ffffffffffffffffffffffffffffffffffffffff1673ffffffffffffffffffffffffffffffffffffffff16815260200182815260200192505050600060405180830381600087803b1580156112ae57600080fd5b505af11580156112c2573d6000803e3d6000fd5b505050505080806001019150506110cf565b506001600660006101000a81548160ff02191690831515021790555061038442016007819055507f762f260439bb4be3ef6e4dc2786e2e7bd187d3d80b79057d7a424fe98563e33560405160405180910390a150565b600660009054906101000a900460ff166113ac576040517f08c379a00000000000000000000000000000000000000000000000000000000081526004018080602001828103825260108152602001807f47616d65206e6f7420737461727465640000000000000000000000000000000081525060200191505060405180910390fd5b600754421115611424576040517f08c379a00000000000000000000000000000000000000000000000000000000081526004018080602001828103825260098152602001807f47616d65206f766572000000000000000000000000000000000000000000000081525060200191505060405180910390fd5b6000600260009054906101000a900473ffffffffffffffffffffffffffffffffffffffff1673ffffffffffffffffffffffffffffffffffffffff16634aaf4a12836040518263ffffffff1660e01b81526004018080602001828103825283818151815260200191508051906020019080838360005b838110156114b4578082015181840152602081019050611499565b50505050905090810190601f1680156114e15780820380516001836020036101000a031916815260200191505b509250505060206040518083038186803b1580156114fe57600080fd5b505afa158015611512573d6000803e3d6000fd5b505050506040513d602081101561152857600080fd5b810190808051906020019092919050505090506000606490503373ffffffffffffffffffffffffffffffffffffffff168273ffffffffffffffffffffffffffffffffffffffff1614156115c6576040517f08c379a0000000000000000000000000000000000000000000000000000000008152600401808060200182810382526025815260200180611b286025913960400191505060405180910390fd5b80600160009054906101000a900473ffffffffffffffffffffffffffffffffffffffff1673ffffffffffffffffffffffffffffffffffffffff1663f8b2cb4f336040518263ffffffff1660e01b8152600401808273ffffffffffffffffffffffffffffffffffffffff1673ffffffffffffffffffffffffffffffffffffffff16815260200191505060206040518083038186803b15801561166657600080fd5b505afa15801561167a573d6000803e3d6000fd5b505050506040513d602081101561169057600080fd5b81019080805190602001909291905050501015611715576040517f08c379a00000000000000000000000000000000000000000000000000000000081526004018080602001828103825260128152602001807f496e73756669636369656e742066756e6473000000000000000000000000000081525060200191505060405180910390fd5b600160009054906101000a900473ffffffffffffffffffffffffffffffffffffffff1673ffffffffffffffffffffffffffffffffffffffff1663ae3425828333846040518463ffffffff1660e01b8152600401808473ffffffffffffffffffffffffffffffffffffffff1673ffffffffffffffffffffffffffffffffffffffff1681526020018373ffffffffffffffffffffffffffffffffffffffff1673ffffffffffffffffffffffffffffffffffffffff1681526020018281526020019350505050600060405180830381600087803b1580156117f257600080fd5b505af1158015611806573d6000803e3d6000fd5b50505050600260009054906101000a900473ffffffffffffffffffffffffffffffffffffffff1673ffffffffffffffffffffffffffffffffffffffff1663893c7ade8333866040518463ffffffff1660e01b8152600401808473ffffffffffffffffffffffffffffffffffffffff1673ffffffffffffffffffffffffffffffffffffffff1681526020018373ffffffffffffffffffffffffffffffffffffffff1673ffffffffffffffffffffffffffffffffffffffff16815260200180602001828103825283818151815260200191508051906020019080838360005b838110156118fe5780820151818401526020810190506118e3565b50505050905090810190601f16801561192b5780820380516001836020036101000a031916815260200191505b50945050505050600060405180830381600087803b15801561194c57600080fd5b505af1158015611960573d6000803e3d6000fd5b50505050505050565b6003818154811061197657fe5b90600052602060002090600202016000915090508060000160009054906101000a900473ffffffffffffffffffffffffffffffffffffffff1690806001018054600181600116156101000203166002900480601f016020809104026020016040519081016040528092919081815260200182805460018160011615610100020316600290048015611a485780601f10611a1d57610100808354040283529160200191611a48565b820191906000526020600020905b815481529060010190602001808311611a2b57829003601f168201915b5050505050905082565b6040518060400160405280600073ffffffffffffffffffffffffffffffffffffffff168152602001606081525090565b828054600181600116156101000203166002900490600052602060002090601f016020900481019282601f10611ac357805160ff1916838001178555611af1565b82800160010185558215611af1579182015b82811115611af0578251825591602001919060010190611ad5565b5b509050611afe9190611b02565b5090565b611b2491905b80821115611b20576000816000905550600101611b08565b5090565b9056fe506c617965722063616e277420616c7265616479206f776e207468652070726f70657274794f6e6c79207468652042616e6b65722063616e207374617274207468652067616d65a265627a7a72315820fd7c26f04cfffbad56dd464e6550ab6a6e772e12b722880fda0f5516fbd4f50d64736f6c63430005100032608060405234801561001057600080fd5b50336000806101000a81548173ffffffffffffffffffffffffffffffffffffffff021916908373ffffffffffffffffffffffffffffffffffffffff1602179055506107bf806100606000396000f3fe608060405234801561001057600080fd5b506004361061004c5760003560e01c8063075461721461005157806340c10f191461009b578063ae342582146100e9578063f8b2cb4f14610157575b600080fd5b6100596101af565b604051808273ffffffffffffffffffffffffffffffffffffffff1673ffffffffffffffffffffffffffffffffffffffff16815260200191505060405180910390f35b6100e7600480360360408110156100b157600080fd5b81019080803573ffffffffffffffffffffffffffffffffffffffff169060200190929190803590602001909291905050506101d4565b005b610155600480360360608110156100ff57600080fd5b81019080803573ffffffffffffffffffffffffffffffffffffffff169060200190929190803573ffffffffffffffffffffffffffffffffffffffff16906020019092919080359060200190929190505050610375565b005b6101996004803603602081101561016d57600080fd5b81019080803573ffffffffffffffffffffffffffffffffffffffff16906020019092919050505061060d565b6040518082815260200191505060405180910390f35b6000809054906101000a900473ffffffffffffffffffffffffffffffffffffffff1681565b6000809054906101000a900473ffffffffffffffffffffffffffffffffffffffff1673ffffffffffffffffffffffffffffffffffffffff163373ffffffffffffffffffffffffffffffffffffffff1614610296576040517f08c379a00000000000000000000000000000000000000000000000000000000081526004018080602001828103825260148152602001807f53656e646572206973206e6f74206d696e74657200000000000000000000000081525060200191505060405180910390fd5b789f4f2726179a224501d762422c946590d910000000000000008110610324576040517f08c379a00000000000000000000000000000000000000000000000000000000081526004018080602001828103825260148152602001807f416d6f756e742069736e277420746f6f2062696700000000000000000000000081525060200191505060405180910390fd5b80600160008473ffffffffffffffffffffffffffffffffffffffff1673ffffffffffffffffffffffffffffffffffffffff168152602001908152602001600020600082825401925050819055505050565b6000809054906101000a900473ffffffffffffffffffffffffffffffffffffffff1673ffffffffffffffffffffffffffffffffffffffff163373ffffffffffffffffffffffffffffffffffffffff161461041a576040517f08c379a00000000000000000000000000000000000000000000000000000000081526004018080602001828103825260278152602001806107646027913960400191505060405180910390fd5b600160008373ffffffffffffffffffffffffffffffffffffffff1673ffffffffffffffffffffffffffffffffffffffff168152602001908152602001600020548111156104cf576040517f08c379a00000000000000000000000000000000000000000000000000000000081526004018080602001828103825260158152602001807f496e73756666696369656e742062616c616e63652e000000000000000000000081525060200191505060405180910390fd5b80600160008473ffffffffffffffffffffffffffffffffffffffff1673ffffffffffffffffffffffffffffffffffffffff1681526020019081526020016000206000828254039250508190555080600160008573ffffffffffffffffffffffffffffffffffffffff1673ffffffffffffffffffffffffffffffffffffffff168152602001908152602001600020600082825401925050819055507f3990db2d31862302a685e8086b5755072a6e2b5b780af1ee81ece35ee3cd3345828483604051808473ffffffffffffffffffffffffffffffffffffffff1673ffffffffffffffffffffffffffffffffffffffff1681526020018373ffffffffffffffffffffffffffffffffffffffff1673ffffffffffffffffffffffffffffffffffffffff168152602001828152602001935050505060405180910390a1505050565b60008173ffffffffffffffffffffffffffffffffffffffff163373ffffffffffffffffffffffffffffffffffffffff16148061069557506000809054906101000a900473ffffffffffffffffffffffffffffffffffffffff1673ffffffffffffffffffffffffffffffffffffffff163373ffffffffffffffffffffffffffffffffffffffff16145b6106ea576040517f08c379a00000000000000000000000000000000000000000000000000000000081526004018080602001828103825260328152602001806107326032913960400191505060405180910390fd5b600160008373ffffffffffffffffffffffffffffffffffffffff1673ffffffffffffffffffffffffffffffffffffffff16815260200190815260200160002054905091905056fe596f752063616e6e6f742067657420612062616c616e6365206f6e20736f6d656f6e6520656c73652773206163636f756e744f6e6c79207468652062616e6b65722063616e20617574686f72697a65207472616e7366657273a265627a7a72315820fc9cd9728a875f0431c2c32e4c3fa36dee4bdccd27e768a13042ebd17de38f7c64736f6c63430005100032608060405234801561001057600080fd5b50336000806101000a81548173ffffffffffffffffffffffffffffffffffffffff021916908373ffffffffffffffffffffffffffffffffffffffff16021790555061105d806100606000396000f3fe608060405234801561001057600080fd5b506004361061004c5760003560e01c8063481c6a75146100515780634aaf4a121461009b5780636ef4d28c14610196578063893c7ade1461027b575b600080fd5b610059610376565b604051808273ffffffffffffffffffffffffffffffffffffffff1673ffffffffffffffffffffffffffffffffffffffff16815260200191505060405180910390f35b610154600480360360208110156100b157600080fd5b81019080803590602001906401000000008111156100ce57600080fd5b8201836020820111156100e057600080fd5b8035906020019184600183028401116401000000008311171561010257600080fd5b91908080601f016020809104026020016040519081016040528093929190818152602001838380828437600081840152601f19601f82011690508083019250505050505050919291929050505061039b565b604051808273ffffffffffffffffffffffffffffffffffffffff1673ffffffffffffffffffffffffffffffffffffffff16815260200191505060405180910390f35b610279600480360360608110156101ac57600080fd5b81019080803590602001906401000000008111156101c957600080fd5b8201836020820111156101db57600080fd5b803590602001918460018302840111640100000000831117156101fd57600080fd5b91908080601f016020809104026020016040519081016040528093929190818152602001838380828437600081840152601f19601f82011690508083019250505050505050919291929080359060200190929190803573ffffffffffffffffffffffffffffffffffffffff1690602001909291905050506105df565b005b6103746004803603606081101561029157600080fd5b81019080803573ffffffffffffffffffffffffffffffffffffffff169060200190929190803573ffffffffffffffffffffffffffffffffffffffff169060200190929190803590602001906401000000008111156102ee57600080fd5b82018360208201111561030057600080fd5b8035906020019184600183028401116401000000008311171561032257600080fd5b91908080601f016020809104026020016040519081016040528093929190818152602001838380828437600081840152601f19601f820116905080830192505050505050509192919290505050610954565b005b6000809054906101000a900473ffffffffffffffffffffffffffffffffffffffff1681565b600080826040516020018082805190602001908083835b602083106103d557805182526020820191506020810190506020830392506103b2565b6001836020036101000a0380198251168184511680821785525050505050509050019150506040516020818303038152906040528051906020012060001c905061041d610ed2565b600160008381526020019081526020016000206040518060800160405290816000820160009054906101000a900473ffffffffffffffffffffffffffffffffffffffff1673ffffffffffffffffffffffffffffffffffffffff1673ffffffffffffffffffffffffffffffffffffffff168152602001600182018054600181600116156101000203166002900480601f01602080910402602001604051908101604052809291908181526020018280546001816001161561010002031660029004801561052a5780601f106104ff5761010080835404028352916020019161052a565b820191906000526020600020905b81548152906001019060200180831161050d57829003601f168201915b50505050508152602001600282015481526020016003820160009054906101000a900460ff161515151581525050905080606001516105d1576040517f08c379a00000000000000000000000000000000000000000000000000000000081526004018080602001828103825260148152602001807f417373657420646f6573206e6f7420657869737400000000000000000000000081525060200191505060405180910390fd5b806000015192505050919050565b6000809054906101000a900473ffffffffffffffffffffffffffffffffffffffff1673ffffffffffffffffffffffffffffffffffffffff163373ffffffffffffffffffffffffffffffffffffffff1614610684576040517f08c379a00000000000000000000000000000000000000000000000000000000081526004018080602001828103825260258152602001806110046025913960400191505060405180910390fd5b6000836040516020018082805190602001908083835b602083106106bd578051825260208201915060208101905060208303925061069a565b6001836020036101000a0380198251168184511680821785525050505050509050019150506040516020818303038152906040528051906020012060001c90506001600082815260200190815260200160002060030160009054906101000a900460ff1615610794576040517f08c379a00000000000000000000000000000000000000000000000000000000081526004018080602001828103825260188152602001807f4173736574206e616d6520616c7265616479206164646564000000000000000081525060200191505060405180910390fd5b61079c610ed2565b60405180608001604052808473ffffffffffffffffffffffffffffffffffffffff168152602001868152602001858152602001600115158152509050806001600084815260200190815260200160002060008201518160000160006101000a81548173ffffffffffffffffffffffffffffffffffffffff021916908373ffffffffffffffffffffffffffffffffffffffff160217905550602082015181600101908051906020019061084f929190610f12565b506040820151816002015560608201518160030160006101000a81548160ff0219169083151502179055509050507ffd288a46d080f2a24ab4d47d4231a7ae3a4538d57a6c1c9afe6807e6c949f6ea3386604051808373ffffffffffffffffffffffffffffffffffffffff1673ffffffffffffffffffffffffffffffffffffffff16815260200180602001828103825283818151815260200191508051906020019080838360005b838110156109125780820151818401526020810190506108f7565b50505050905090810190601f16801561093f5780820380516001836020036101000a031916815260200191505b50935050505060405180910390a15050505050565b6000809054906101000a900473ffffffffffffffffffffffffffffffffffffffff1673ffffffffffffffffffffffffffffffffffffffff163373ffffffffffffffffffffffffffffffffffffffff16146109f9576040517f08c379a0000000000000000000000000000000000000000000000000000000008152600401808060200182810382526029815260200180610fdb6029913960400191505060405180910390fd5b6000816040516020018082805190602001908083835b60208310610a325780518252602082019150602081019050602083039250610a0f565b6001836020036101000a0380198251168184511680821785525050505050509050019150506040516020818303038152906040528051906020012060001c9050610a7a610ed2565b600160008381526020019081526020016000206040518060800160405290816000820160009054906101000a900473ffffffffffffffffffffffffffffffffffffffff1673ffffffffffffffffffffffffffffffffffffffff1673ffffffffffffffffffffffffffffffffffffffff168152602001600182018054600181600116156101000203166002900480601f016020809104026020016040519081016040528092919081815260200182805460018160011615610100020316600290048015610b875780601f10610b5c57610100808354040283529160200191610b87565b820191906000526020600020905b815481529060010190602001808311610b6a57829003601f168201915b50505050508152602001600282015481526020016003820160009054906101000a900460ff16151515158152505090508060600151610c2e576040517f08c379a00000000000000000000000000000000000000000000000000000000081526004018080602001828103825260108152602001807f4173736574206d7573742065786973740000000000000000000000000000000081525060200191505060405180910390fd5b8473ffffffffffffffffffffffffffffffffffffffff16816000015173ffffffffffffffffffffffffffffffffffffffff1614610cb6576040517f08c379a0000000000000000000000000000000000000000000000000000000008152600401808060200182810382526023815260200180610fb86023913960400191505060405180910390fd5b83816000019073ffffffffffffffffffffffffffffffffffffffff16908173ffffffffffffffffffffffffffffffffffffffff1681525050806001600084815260200190815260200160002060008201518160000160006101000a81548173ffffffffffffffffffffffffffffffffffffffff021916908373ffffffffffffffffffffffffffffffffffffffff1602179055506020820151816001019080519060200190610d65929190610f12565b506040820151816002015560608201518160030160006101000a81548160ff0219169083151502179055509050507f800d876eac12569fec14bd54ab9a3e37f34e2fabf6ed5bc877670de6522442e433868686604051808573ffffffffffffffffffffffffffffffffffffffff1673ffffffffffffffffffffffffffffffffffffffff1681526020018473ffffffffffffffffffffffffffffffffffffffff1673ffffffffffffffffffffffffffffffffffffffff1681526020018373ffffffffffffffffffffffffffffffffffffffff1673ffffffffffffffffffffffffffffffffffffffff16815260200180602001828103825283818151815260200191508051906020019080838360005b83811015610e8e578082015181840152602081019050610e73565b50505050905090810190601f168015610ebb5780820380516001836020036101000a031916815260200191505b509550505050505060405180910390a15050505050565b6040518060800160405280600073ffffffffffffffffffffffffffffffffffffffff16815260200160608152602001600081526020016000151581525090565b828054600181600116156101000203166002900490600052602060002090601f016020900481019282601f10610f5357805160ff1916838001178555610f81565b82800160010185558215610f81579182015b82811115610f80578251825591602001919060010190610f65565b5b509050610f8e9190610f92565b5090565b610fb491905b80821115610fb0576000816000905550600101610f98565b5090565b9056fe4173736574206d757374206265206f776e65642062792066726f6d20616464726573734f6e6c79207468652041737365744d616e616765722063616e207472616e73666572206173736574734f6e6c7920746865204173736574204d616e616765722063616e2061646420617373657473a265627a7a72315820ab7e8c1207e490812c01d8b14eedaf635eea6abc45ff9327996cbcd2645f5d0664736f6c63430005100032",
  "source": "pragma solidity 0.5.16;\r\n \r\nimport \"./Bank.sol\";\r\nimport \"./AssetManager.sol\";\r\n \r\ncontract Blockopoly {\r\n    address public banker;\r\n    Bank public bank;\r\n    AssetManager public assetManager;\r\n\r\n    struct  Player {\r\n        address addr;\r\n        string name;\r\n    }\r\n    Player[] public players;\r\n    mapping(string => bool) public names;\r\n    mapping(address => Player) public addrPlayerMapping;\r\n\r\n    bool public started;\r\n    uint256 private endTime;\r\n \r\n    event GameStarted();\r\n    event PlayerJoined(address player, string name);\r\n\r\n    constructor() public {\r\n        banker = msg.sender;\r\n        bank = new Bank();\r\n        bank.mint(banker, 100000);\r\n        \r\n        assetManager = new AssetManager();\r\n        publishProperties();\r\n    }\r\n \r\n    function publishProperties() private {\r\n        assetManager.addAsset(\"Redmond Reactor\", 100, banker);\r\n        assetManager.addAsset(\"Seattle Reactor\", 100, banker);\r\n        assetManager.addAsset(\"San Francisco Reactor\", 100, banker);\r\n        assetManager.addAsset(\"New York Reactor\", 100, banker);\r\n        assetManager.addAsset(\"Toronto Reactor\", 100, banker);\r\n        assetManager.addAsset(\"London Reactor\", 100, banker);\r\n        assetManager.addAsset(\"Sao Paulo Reactor\", 100, banker);\r\n        assetManager.addAsset(\"Tel Aviv Reactor\", 100, banker);\r\n        assetManager.addAsset(\"Stockholm Reactor\", 100, banker);\r\n        assetManager.addAsset(\"Abu Dhabi Reactor\", 100, banker);\r\n        assetManager.addAsset(\"Sydney Reactor\", 100, banker);\r\n        assetManager.addAsset(\"Shanghai Reactor\", 100, banker);\r\n        assetManager.addAsset(\"Bangalore Reactor\", 100, banker);\r\n    }\r\n \r\n    function startGame() public {\r\n        require(msg.sender == banker, \"Only the Banker can start the game\");\r\n        require(!started, \"Game already started\");\r\n \r\n        uint length = players.length;\r\n        require(length >= 2, \"Need at least two players\");\r\n \r\n        for(uint i = 0; i < length; i++) {\r\n            Player memory p = players[i];\r\n            bank.mint(p.addr, 1000);\r\n        }\r\n \r\n        started = true;\r\n        endTime = now + 15 minutes;\r\n        emit GameStarted();\r\n    }\r\n\r\n    function joinGame(string memory _name) public {\r\n        require(players.length < 6, \"Game is full\");\r\n        require(!names[_name], \"Name is already taken\");\r\n \r\n        Player memory p = Player({\r\n            addr: msg.sender,\r\n            name: _name\r\n          }\r\n        );\r\n        players.push(p);\r\n        names[_name] = true;\r\n        addrPlayerMapping[msg.sender] = p;\r\n \r\n        emit PlayerJoined(msg.sender, _name);\r\n    }\r\n \r\n    function buyProperty(string memory _name) public {\r\n        require(started, \"Game not started\");\r\n        require(now <= endTime, \"Game over\");\r\n\r\n        address owner = assetManager.getOwner(_name);\r\n        uint price = 100;\r\n \r\n        require(owner != msg.sender, \"Player can't already own the property\");\r\n        require(bank.getBalance(msg.sender) >= price, \"Insuficcient funds\");\r\n \r\n        bank.sendMoney(owner, msg.sender, price);\r\n        assetManager.transferAsset(owner, msg.sender, _name);\r\n    }\r\n    \r\n    function getWinner() public view returns (string memory winner) {\r\n        require(started, \"Game not started\");\r\n        require(now > endTime, \"Game not ended\");\r\n\r\n        uint winnerIndex;\r\n        uint greaterBalance = 0;\r\n        uint auxBalance = 0;\r\n        \r\n        for (uint i = 0; i <  players.length; i++) {\r\n            auxBalance = bank.getBalance(players[i].addr);\r\n            if (auxBalance > greaterBalance) {\r\n                winnerIndex = i;\r\n                greaterBalance = auxBalance;\r\n            }\r\n        }\r\n        return players[winnerIndex].name;\r\n    }\r\n}",
  "sourcePath": "D:\\BLOCKCHAIN\\DevelopIntelligence\\GITHUB\\blockopoly-box\\contracts\\Blockopoly.sol",
  "compiler": {
    "name": "solc",
    "version": "0.5.16+commit.9c3226ce.Emscripten.clang"
  },
  "schemaVersion": "3.2.2",
  "updatedAt": "2020-08-04T04:03:15.799Z",
  "devdoc": {
    "methods": {}
  },
  "userdoc": {
    "methods": {}
  }
}